:020000040800F2
:1000000000C00020F5990008F1990008F199000856
:10001000F1990008F1990008F1990008000000002A
:10002000000000000000000000000000F19900083E
:10003000F199000800000000F1990008A95B000890
:10004000F1990008F1990008F199000831160008AB
:10005000F1990008F1990008F1990008F199000858
:10006000F1990008F1990008F1990008F199000848
:10007000F1990008F1990008F1990008F199000838
:10008000F1990008F199000825160008F199000877
:10009000F1990008F1990008F1990008011600088B
:1000A000F1990008F1990008F1990008F199000808
:1000B000F19900080000000000000000F19900081C
:1000C000F1990008F1990008F1990008F1990008E8
:1000D000F1990008F1990008F1990008F515000858
:1000E000F19900088D1600080000000000000000D3
:1000F0000000000000000000000000000000000000
:1001000000000000F199000800000000F1990008CB
:100110000000000000000000F1990008F1990008BB
:10012000F1990008F1990008F1990008F199000887
:10013000F19900080000000000000000000000002D
:10014000F1990008F1990008F199000800000000F9
:10015000F1990008F1990008F1990008F199000857
:10016000F1990008F1990008F199000800000000D9
:10017000F1990008F199000800000000000000005B
:0C018000F1990008F1990008F1990008BD
:1001900010B5054C237833B9044B13B10448AFF3C1
:1001A00000800123237010BD5008002000000000D3
:1001B00090AE000808B5034B1BB103490348AFF3E9
:1001C000008008BD000000005408002090AE000828
:1001D000A3F5803A704700BF174B002B08BF134BA5
:1001E0009D46FFF7F5FF00218B460F461348144A42
:1001F000121A09F0F5FB0E4B002B00D098470D4B5F
:10020000002B00D098470020002104000D000D486D
:10021000002802D00C48AFF3008009F0BDFB20009D
:10022000290001F08BF909F0A3FB00BF00000800D2
:100230000000000000000000000000005008002046
:1002400034530020000000000000000080B483B0A0
:1002500000AF03463960FB7197F90730002B0ADBCA
:100260003B68DAB20C4997F907301201D2B20B445D
:1002700083F800230AE03B68DAB20849FB7903F00F
:100280000F03043B1201D2B20B441A7600BF0C37A5
:10029000BD465DF8047B704700E100E000ED00E042
:1002A00080B582B000AF78607B68013BB3F1807F9E
:1002B00001D301230FE00A4A7B68013B53600F2101
:1002C0004FF0FF30FFF7C2FF054B00229A60044B4E
:1002D00007221A60002318460837BD4680BD00BFBC
:1002E00010E000E02DE9B00F99B000AFC7E91601AA
:1002F000D7E916234FF000084FF000094FEA0269D2
:100300004FF00008D7E916234FF000004FF000012E
:1003100011020020002401F47F0548EA04033B6534
:1003200049EA05037B65D7E916234FF000004FF03B
:100330000001190641EA122110064FF0000A01F4EB
:100340007F4BD7E914120B4643EA0A03BB641346FA
:1003500043EA0B03FB64D7E916234FF000004FF08C
:100360000001190241EA1261100200233B6401F00E
:10037000FF037B64D7E912452346D7E91001024603
:100380001343BB632B460A461343FB63D7E916238B
:100390004FF000004FF00001100A40EA0360190A14
:1003A00000F07F433B6300237B63D7E90E45234680
:1003B000D7E90C0102461343BB622B460A4613439E
:1003C000FB62D7E916234FF000004FF00001100E3A
:1003D00040EA0320190E00F47F033B6200237B6296
:1003E000D7E90A452346D7E9080102461343BB6112
:1003F0002B460A461343FB61D7E916014FF0000272
:100400004FF000030A0A002302F47F433B610023FC
:100410007B61D7E906452346D7E904010246134329
:10042000BB602B460A461343FB60D7E916014FF029
:1004300000024FF000030A0E0023D7E902452146CF
:1004400011433960294619437960D7E900231046E2
:1004500019466437BD46BDE8B00F704780B5ADF5AD
:100460003C7D02AF40F69F70FFF71AFF0023009318
:100470000023002201210A2001F0AEFC002300939A
:10048000002300220121092001F0A6FC0023009393
:10049000002300220121282001F09EFC01212820B8
:1004A00001F07EFD0121092001F07AFD0223009375
:1004B000012300220B21032001F08EFCB04B1846D3
:1004C000C4231A46002109F08BFAAD4BAD4A1A60DD
:1004D000002387F8E7321FE097F8E722AA4913467E
:1004E000DB009B1A9B000B441A46002313605360E9
:1004F0009360D36013615361936197F8E722A24937
:100500001346DB009B1A9B000B449D4A1A6097F828
:10051000E732013387F8E73297F8E7320B2BDBD964
:1005200000F098FE994B1846DC231A46002109F08A
:1005300057FA964B964A1A60944B012283F8C420CE
:10054000924B052283F8CB20904801F033F9052324
:1005500008220D218D4801F02DFA052304220921DE
:100560008A4801F027FA052325220E21874801F049
:1005700021FA052311221021844801F01BFA0523DA
:1005800026220F21814801F015FA052305220A21B0
:100590007E4801F00FFA052306220B217B4801F06B
:1005A00009FA052302220721784801F003FA0523FE
:1005B00024220521754801F0FDF90523222203219B
:1005C000724801F0F7F90523012206216F4801F076
:1005D000F1F90523002201216C4801F0EBF96B4B86
:1005E0001B689A68694B1B6842F001029A6000BF61
:1005F000674B1B6803F00103002BF9D0634B1B68AA
:100600001A68624B1B6842F001021A605F4801F0F1
:10061000C8FA00BF5D4B93F8D830002BFAD1002107
:10062000282001F0BDFC0021092001F0B9FC594B44
:100630001846BC231A46002109F0D2F9554B202256
:100640001A70544B1F225A70524B1E229A70514BF3
:100650002722DA704F4B10221A714E4B1D225A710D
:100660004C4B17229A714B4B0922DA71494B0922E4
:100670001A72484B09225A72464B474ADA60454B78
:1006800001225A74434B01229A74424B434A5A61E5
:10069000404B01225A763F4B08229A763D4B04226A
:1006A000DA763C4B01221A773A4B0822DA83394B2F
:1006B0000E2283F82020374B032283F82120354B6C
:1006C000382283F82220334B41F22442DA84314825
:1006D00006F03AFE03F008FB034687F8E532304B9C
:1006E0004FF416721A8097F8E532002B0AD00522D3
:1006F0002C49284806F0E4FE294B1B8819460A209D
:1007000003F0EAFB234B5B7C012B00F0C78007F56D
:100710003A73A3F53973184630231A46002109F0BD
:100720005FF907F53A73A3F52D7300221A600433BD
:1007300031220021184609F053F907F53A73A3F561
:100740002D7355221A70134B5A7C07F53A73A3F593
:100750002D735A7007F53A73A3F52D7301229A7021
:1007600007F53A73A3F52D731122DA7007F53A7382
:10077000A3F52D7330221A71002387F8E6323EE08C
:10078000B00C002000440040600B0020840A0020D0
:1007900000000450C8090020003800408047A1191B
:1007A00088120020D0AE000897F8E62297F8E612EB
:1007B0003F4813465B0013449B0003440C331A88E4
:1007C00007F53A73A3F5397323F8112097F8E62259
:1007D00097F8E63203F10C0136481346DB009B1A0A
:1007E0009B0003440C331A8807F53A73A3F5397359
:1007F00023F8112097F8E632013387F8E63297F8AC
:10080000E6320B2BD0D92A4BB3F8D62007F53A7332
:10081000A3F53973DA8207F134030533391D302229
:10082000184609F01DF90021282001F0B9FB00212C
:10083000092001F0B5FB04230093022301220021CB
:10084000092001F0C9FA04230093022301220021A8
:10085000282001F0C1FA0423009302230122002181
:10086000032001F0B9FA07F1340335221946124882
:1008700006F026FE114B9B6F9AB2114B1A80104B5B
:100880001B88184602F092FF4FF4FA6005F0A2F9B7
:10089000094807F02FF905F043FB03E00021064863
:1008A00007F0A8F800BF07F53A77BD4680BD00BF46
:1008B000840A0020600B0020C809002000280040A6
:1008C0008812002080B596B000AF7860396007F1DB
:1008D0000C0330220021184609F082F83B68DB78CF
:1008E000013B122B00F20F8201A252F823F000BF4D
:1008F0003D090008230A0008C1090008E7090008AB
:10090000030A0008A70900081D0B00087909000860
:10091000070D0008070D0008070D0008070D000867
:10092000070D0008070D0008690900089B0B000867
:100930001D0C0008A70B0008870900083B689B787E
:1009400087F843303B685A783B689A703B6897F861
:1009500043205A703B681B790533DBB21A4639686D
:10096000786806F0ADFDD5E17B6829330122194690
:10097000786806F0A5FDCDE13B689B7919460A2011
:1009800001F00EFBC6E13B681B79022B40F0BD81F4
:100990003B685B791B023A689279134319460A2037
:1009A00003F09AFAB1E107F13C03184603F07EFB2D
:1009B00007F13C0307221946786806F081FDA9E19A
:1009C00007F13C0304333A68511D0322184609F02D
:1009D00047F807F13C03184602F0A2FF0346184609
:1009E00002F064FF96E13B6805331B68FB6307F187
:1009F0003C03184602F0F0FF0346184603F050F897
:100A000088E13B685A1D07F13C0310681860918823
:100A1000927999809A7107F13C03184603F07AF8AD
:100A200078E10121282001F0BBFA0121092001F021
:100A3000B7FABA4805F092FC034687F8573000230E
:100A400087F8563016E097F856201346DB009B1ABD
:100A50009B00B34A1344184605F09CFC03461A4613
:100A600097F85730134487F8573097F856300133CA
:100A700087F8563097F856300B2BE4D9A94801F087
:100A800090F800BFA74B93F8D830002BFAD1002381
:100A900087F855302AE097F8552097F85510A14867
:100AA00013465B0013449B0003440C331A884B002D
:100AB00007F158010B4423F84C2C97F8552097F870
:100AC000553003F10C0196481346DB009B1A9B003E
:100AD00003440C331A884B0007F158010B4423F8E8
:100AE0004C2C97F85530013387F8553097F855302E
:100AF0000B2BD0D98B4BB3F8D6307B840021282028
:100B000001F04EFA0021092001F04AFA07F10C0326
:100B100030221946786806F0D3FCFBE0002387F802
:100B200054302AE097F8542097F854107D48134623
:100B30005B0013449B0003440C331A884B0007F1FD
:100B400058010B4423F84C2C97F8542097F8543054
:100B500003F10C0172481346DB009B1A9B0003440F
:100B60000C331A884B0007F158010B4423F84C2C26
:100B700097F85430013387F8543097F854300B2BE2
:100B8000D0D9684BB3F8D630BB8407F10C033022C0
:100B90001946786806F094FCBCE002226249786845
:100BA00006F08EFCB6E03B681B79032B40F0AF806B
:100BB0003B685B7987F84B303B689B791B021AB224
:100BC0003B68DB791BB213431BB2A7F84830574B85
:100BD00093F8713023F07F03DBB2002B05D053482C
:100BE00005F07EFF514805F01BFE514806F082FFDC
:100BF00097F84B304FF47A7202FB03F3184604F077
:100C0000E9FFB7F84830002B00F08180B7F8483092
:100C1000184602F0CBFD05F083F978E0454803F073
:100C200045FA3B685B78022B04D1434B3B65434B51
:100C3000FB6407E03B685B78032B6AD1404B3B6564
:100C4000404BFB64FB6C1B881A463B681B791344C2
:100C50000A33B3F5407F44D2FB6C1B881A463B6DC8
:100C60001344344A106818609188927999809A7177
:100C7000FB6C1B8807339AB2FB6C1A80FB6C1B88D9
:100C80001A463B6D98183B68591D3B681B791A46FC
:100C900008F0E6FEFB6C1A883B681B799BB2134494
:100CA0009AB2FB6C1A80224B93F82B303B72204B8C
:100CB00093F82A307B721E4B93F82930BB72FB6C81
:100CC0001B881A463B6D13441A4607F1080319881E
:100CD0009B7811809370FB6C1B8803339AB2FB6C7A
:100CE0001A80144B1B791A04124B5B791B021343B5
:100CF000104A927913437B643B685B78796C1846A1
:100D000003F0EAF806E000BF04E000BF02E000BF25
:100D100000E000BF00BF5837BD4680BDB00C0020CA
:100D2000600B0020840A00205A0B00204809002094
:100D3000C8090020801200207810002078110020BF
:100D40007C1100207C12002080B400AF084B0022F0
:100D50001A70084B00221A70074B00221A60074BCA
:100D60004FF000021A6000BFBD465DF8047B70477B
:100D70006D0800206E080020700800204009002047
:100D800080B483B000AF0346FB7197F90730002BA6
:100D90000BDBFB7903F01F02074997F907305B096A
:100DA000012000FA02F241F8232000BF0C37BD46B3
:100DB0005DF8047B704700BF00E100E080B483B0C1
:100DC00000AF0346FB7197F90730002B12DBFB796C
:100DD00003F01F020A4997F907305B09012000FA66
:100DE00002F2203341F82320BFF34F8F00BFBFF33F
:100DF0006F8F00BF00BF0C37BD465DF8047B7047A6
:100E000000E100E080B500AF0A2001F0EFF800BF7C
:100E100080BD2DE9B00F99B000AFC7E91601D7E941
:100E200016234FF000084FF000094FEA02694FF017
:100E30000008D7E916234FF000004FF0000111021F
:100E40000020002401F47F0548EA04033B6549EAD9
:100E500005037B65D7E916234FF000004FF0000132
:100E6000190641EA122110064FF0000A01F47F4BE7
:100E7000D7E914120B4643EA0A03BB64134643EA5C
:100E80000B03FB64D7E916234FF000004FF000017D
:100E9000190241EA1261100200233B6401F0FF03D2
:100EA0007B64D7E912452346D7E910010246134374
:100EB000BB632B460A461343FB63D7E916234FF067
:100EC00000004FF00001100A40EA0360190A00F028
:100ED0007F433B6300237B63D7E90E452346D7E975
:100EE0000C0102461343BB622B460A461343FB62C6
:100EF000D7E916234FF000004FF00001100E40EA32
:100F00000320190E00F47F033B6200237B62D7E9C4
:100F10000A452346D7E9080102461343BB612B4625
:100F20000A461343FB61D7E916014FF000024FF068
:100F300000030A0A002302F47F433B6100237B6124
:100F4000D7E906452346D7E9040102461343BB60AF
:100F50002B460A461343FB60D7E916014FF0000207
:100F60004FF000030A0E0023D7E902452146114342
:100F70003960294619437960D7E90023104619469C
:100F80006437BD46BDE8B00F704780B5A4B000AF70
:100F9000A34B5B7C012B40F03F81A24B1846802382
:100FA0001A46002108F01CFD9E4B1C221A709D4B16
:100FB0001B225A709B4B0C221A719A4B0D225A71AC
:100FC000984B0B229A71974B2E22DA71954B0B227C
:100FD0005A72944B0B229A72924B934A1A611720C1
:100FE000FFF7ECFE8F4805F0A7FA034687F88F302D
:100FF0008E4B1B88A7F88C308C4B1B881A468C4B69
:101000001B781344B3F5407F32D2022387F888302F
:10101000874B1B781B12DBB287F88930844B1B7817
:1010200087F88A30814B1B881A46824B13441A4634
:1010300007F1880319889B78118093707B4B1B887C
:1010400003339AB2794B1A80784B1B881A46794B36
:101050001344774A12787849184608F001FD744B1A
:101060001B789AB2714B1B8813449AB26F4B1A804B
:101070006E4B1B881A46714B1B781344B3F5407FA7
:1010800032D2032387F884306C4B1B781B12DBB2FF
:1010900087F88530694B1B7887F88630634B1B884F
:1010A0001A46644B13441A4607F1840319889B7847
:1010B000118093705D4B1B8803339AB25B4B1A808F
:1010C0005A4B1B881A465B4B13445C4A12785C49A6
:1010D000184608F0C5FC594B1B789AB2534B1B8835
:1010E00013449AB2514B1A804E4805F02FFB4D48DD
:1010F00005F03AFB4D4B1B880333B3F5407F16D206
:101100004A4B1B881A464B4B1344464AD28B1A80D3
:10111000464B1B880233474A1344424A92F8202028
:101120001A70424B1B8803339AB2404B1A80454ACF
:101130003E4B1B881380444AB7F88C30138040F232
:10114000A46004F047FD374805F078FB034687F8B4
:101150008E304FF42F7004F03DFD97F88E30002B49
:101160004BD13A4A3A492F4805F018FC2D4B93F8D9
:101170007030052B3ED141F294112A4805F00EFD46
:101180002A4B1B881A462B49264805F059FC41F288
:101190009411244805F0DCFC0346002B26D021489E
:1011A00005F09EFC4FF4FA7004F014FD1D4805F0A4
:1011B00045FB034687F88E304FF4FA7004F00AFDC1
:1011C000224A2349174805F0E9FB41F294111548DA
:1011D00005F0E4FC154B1B881A461649114805F02A
:1011E0002FFC41F294110F4805F0B2FC0D4805F0B8
:1011F00077FC02E00B4805F073FC0A4805F010FB91
:101200000A4B00221A800A4B00221A700B4B002254
:101210001A701720FFF7B4FD00BF9037BD4680BDA0
:10122000C809002048090020004800407410002030
:1012300078110020740D0020781000207C1200200E
:101240007C110020780D00207A0D0020D8AE000817
:10125000E0AE000890B589B000AF2E4805F07EF8EA
:101260000023FB774EE0FB7F2B4ADB001344D3E9DE
:10127000002310461946FFF735F802460B46C7E92A
:10128000042307F110031946224801F037FF0346F3
:10129000BB77BB7F002B32D1BE211E4801F077FD0A
:1012A000FA7F1346DB009B1A9B0008331B4A13444A
:1012B000043309221946174801F04BFDFA7F1749FC
:1012C0001346DB009B1A9B000B440C331B8818460B
:1012D00007F0D0FF4FF00002114B08F045F802462E
:1012E0000B46FC7F1046194608F098FA02460B4957
:1012F0002346DB001B1B9B000B4418331A60FB7F4B
:101300000133FB77FB7F0B2BADD900BF00BF243728
:10131000BD4690BDB00C002008000020600B0020EE
:101320000000B03F80B590B000AF002387F83F3099
:101330001AE097F83F20664913465B0013449B0070
:101340000B440C3300221A8097F83F206149134662
:10135000DB009B1A9B000B440C3300221A8097F889
:101360003F30013387F83F3097F83F300A2BE0D900
:10137000584B0022A3F840210121282000F010FE44
:101380000121092000F00CFE642004F023FC5048E9
:1013900000F007FCFFF75EFF00BF4D4B93F8D8301D
:1013A000002BFAD10021282000F0FAFD00210920AD
:1013B00000F0F6FD07F10C0330220021184608F07A
:1013C0000FFB002387F83E302AE097F83E2097F87D
:1013D0003E103F4813465B0013449B0003440C330C
:1013E0001A884B0007F140010B4423F8342C97F87E
:1013F0003E2097F83E3003F10C0136481346DB00DF
:101400009B1A9B0003440C331A884B0007F14001E0
:101410000B4423F8342C97F83E30013387F83E30E4
:1014200097F83E300B2BD0D9294BB3F8D6307B84BC
:10143000294B1B88002B1AD14DF6AD63BB804BF6B0
:10144000AF63FB80244B1B883B8100237B81224BB5
:101450001B881A46214B1344391D0822184608F0F0
:10146000FFFA1D4B1B8808339AB21B4B1A801A4B8C
:101470001B883733B3F5407F25D2194802F016FE9A
:10148000154B1B881A46154B1344154A10681860F3
:101490009188927999809A710F4B1B8807339AB281
:1014A0000D4B1A800C4B1B881A460C4B134407F14A
:1014B0000C013022184608F0D3FA074B1B88303352
:1014C0009AB2054B1A8000BF4037BD4680BD00BFB1
:1014D000840A0020600B002074100020740D00208E
:1014E0008012002080B500AFFFF74FFD104B9B6FBF
:1014F0009AB2104B1A800F4B1B88002B0CD00D4B4F
:101500001B884CF24F32934206D80A4B1B88A03BF3
:101510009BB2184602F04AF94FF4FA6004F05AFB05
:10152000054806F0E7FA04F0FBFC00BF80BD00BFF1
:101530000028004088120020C809002080B500AFB4
:10154000234BD3F88830224A43F47003C2F8883022
:10155000FEF784FF1F4B00221A804FF48072002197
:101560001D4808F03DFAFFF7DDFE1C4B93F82830CC
:10157000002B02D0194806F06BFC194B1B780F2B7F
:1015800020D9FFF702FD174B9B6F9AB2164B1A80BA
:10159000154B1B88002B0CD0134B1B884CF24F3281
:1015A000934206D8104B1B883C3B9BB2184602F076
:1015B000FDF84FF4FA6004F00DFB084806F09AFAC3
:1015C00004F0AEFC094A0121094804F04BFBCCE7CA
:1015D00000ED00E074100020740D0020C809002008
:1015E000781100200028004088120020E51400082F
:1015F00080FC0A0080B500AF05F010FE00BF80BD82
:1016000080B500AF054B5B69044A43F0400353616A
:10161000034806F04DFC00BF80BD00BF0004014040
:10162000C809002080B500AF00F0DBFA00BF80BD24
:1016300080B400AF124B5B69114A43F480135361CD
:10164000104B1B680F4A43F4807313600E4BCA2281
:101650005A620D4B53225A620B4BDB680A4A23F441
:101660008063D360084BFF225A62064B1B68054A11
:1016700023F48073136000BFBD465DF8047B7047A0
:1016800000040140007000400028004080B400AF1A
:10169000124B5B69114A43F480235361104B1B6862
:1016A0000F4A43F4807313600E4BCA225A620D4BEB
:1016B00053225A620B4BDB680A4A23F48073D360CF
:1016C000084BFF225A62064B1B68054A23F48073BD
:1016D000136000BFBD465DF8047B70470004014005
:1016E000007000400028004080B483B000AF034683
:1016F000FB7197F90730002B0BDBFB7903F01F021E
:10170000074997F907305B09012000FA02F241F816
:10171000232000BF0C37BD465DF8047B704700BF37
:1017200000E100E080B483B000AF78607B684FF0E8
:1017300000529A607B684FF00042DA607B680022BA
:101740005A607B6800221A607B6800221A617B68FD
:1017500000225A617B6800229A617B684FF47F0205
:101760001A627B684FF47F025A627B684FF47F02F3
:101770009A627B6800221A637B6800225A637B6846
:1017800000229A637B680022DA637B680022DA64B5
:101790007B6800221A667B6800225A667B680022FA
:1017A0009A667B680022DA6600BF0C37BD465DF89A
:1017B000047B704780B582B000AF78607B681B689F
:1017C0001846FFF7AFFF784BDB6C774A43F40053C2
:1017D000D364754BD3F88830734A23F04053C2F872
:1017E0008830714BD3F888306F4A43F04053C2F8C9
:1017F00088307B681B689A687B681B6822F00052FF
:101800009A607B681B689A687B681B6842F080520C
:101810009A601E2004F0DEF97B681B689A687B687A
:101820001B6842F000429A6000BF7B681B689B689F
:10183000002BFADB7B681B68DA687B6893F8C7309B
:101840005B0319467B681B680A43DA607B681B6888
:10185000DA687B681B6842F48052DA607B681B6838
:10186000DA687B681B6842F00042DA607B681B68BC
:10187000DA687B681B6842F48042DA607B681B6828
:10188000DA687B6893F8CA309B0219467B681B684C
:101890000A43DA607B681B68DA687B6893F8C930B2
:1018A0009B0119467B681B680A43DA607B681B68EA
:1018B000DA687B6893F8C830DB0019467B681B68E0
:1018C0000A43DA607B6893F8C430002B05D0374BAD
:1018D0009B68364A43F4800393607B6893F8C63074
:1018E000002B05D0314B9B68304A43F080739360E6
:1018F0007B6893F8C530002B05D02C4B9B682B4A96
:1019000043F4000393607B6893F8CB30002B20D026
:101910007B681B681A697B681B6842F001021A61C8
:101920007B681B681A697B6893F8CB30013B9B008E
:1019300019467B681B680A431A617B681B681A6931
:101940007B6893F8CB305B0119467B681B680A43C0
:101950001A61174B1B881A4640F6B83302FB03F393
:101960001A467B68C3F8D0207B68002283F8D42015
:101970007B68002283F8CD207B681B685A687B68EF
:101980001B6842F00C025A607B681B685A687B68CF
:101990001B6842F040025A601220FFF7A5FE00BF0C
:1019A0000837BD4680BD00BF001002400003045050
:1019B000AA75FF1F80B584B002AF78600846114653
:1019C0001A460346FB700B46BB7013467B70BB7810
:1019D000002B07D0B87804230093002301220321B1
:1019E00000F0FAF97B6893F8CD3019467A680B4617
:1019F0005B000B449B0013440433FA781A707B6835
:101A000093F8CD3019467A680B465B000B449B0077
:101A100013440533BA781A707B6893F8CD301946B1
:101A20007A680B465B000B449B001344063301228B
:101A30001A707B6893F8CD3019467A680B465B00C4
:101A40000B449B00134407337A781A70FB78013BF0
:101A5000FB70FB78092B0FD87B681B685969787875
:101A6000FA7813465B00134400FA03F31A467B68C6
:101A70001B680A435A610FE07B681B689969787894
:101A8000FA7813465B0013441E3B00FA03F31A4630
:101A90007B681B680A439A617B6893F8CD300133F9
:101AA000DAB27B6883F8CD207B681B681A6B7B6891
:101AB0001B6822F00F021A637B681B681A6B7B6835
:101AC00093F8CD3019467B681B680A431A637B681C
:101AD00093F8CD30042B13D87B681B681A6BF97808
:101AE0007B6893F8CD30184603465B0003445B00E7
:101AF00001FA03F319467B681B680A431A634CE03A
:101B00007B6893F8CD30092B14D87B681B685A6B1F
:101B1000F9787B6893F8CD30184603465B000344A0
:101B20005B001E3B01FA03F319467B681B680A43FE
:101B30005A6332E07B6893F8CD300E2B14D87B6863
:101B40001B689A6BF9787B6893F8CD30184603468A
:101B50005B0003445B003C3B01FA03F319467B68DE
:101B60001B680A439A6318E07B6893F8CD30102B0A
:101B700013D87B681B68DA6BF9787B6893F8CD30F3
:101B8000184603465B0003445B005A3B01FA03F32B
:101B900019467B681B680A43DA6300BF0837BD46F5
:101BA00080BD80B483B000AF78607B681B689A68A2
:101BB0007B681B6842F004029A607B68012283F80C
:101BC000D82000BF0C37BD465DF8047B704780B459
:101BD00083B000AF786000BF0C37BD465DF8047B72
:101BE000704780B483B000AF544B1B681B6803F090
:101BF0000103002B07D0514B1B681A684F4B1B6821
:101C000042F001021A604D4B1B681B6803F004038D
:101C1000002B18D0494B1B681B6CBB80474B93F8BB
:101C2000D4301946454A0B465B000B449B001344D5
:101C30000C33BA881A80414B93F8D4300133DAB2AE
:101C40003E4B83F8D4203D4B1B681B6803F0080310
:101C5000002B4FD0394B002283F8D420374BD3F8D8
:101C6000D03007EE903AF8EE676A344BB3F8903014
:101C700007EE903AB8EE677AC6EE877AFCEEE77A1E
:101C800017EE903A9AB22D4BA3F8D6200023FB71A1
:101C900021E0FA79294913465B0013449B000B4469
:101CA0000C331B881A46254BB3F8D63002FB03F3DE
:101CB000002B01DA03F6FF731B13FA7998B21F4960
:101CC00013465B0013449B000B440E3302461A80FC
:101CD000FB790133FB71FB790A2BDAD9174B1B68AF
:101CE0001A68164B1B6842F008021A60134B002258
:101CF00083F8D820114B1B681B6803F02003002BCE
:101D000007D00E4B1B681A680C4B1B6842F0200270
:101D10001A600A4B1B681B6803F04003002B07D0B6
:101D2000064B1B681A68054B1B6842F040021A609C
:101D300000BF0C37BD465DF8047B7047840A002065
:101D400080B483B000AF0346FB7197F90730002BD6
:101D50000BDBFB7903F01F02074997F907305B099A
:101D6000012000FA02F241F8232000BF0C37BD46E3
:101D70005DF8047B704700BF00E100E080B483B0F1
:101D800000AF78600B46FB70FB78002B00D1FEE7BC
:101D9000FB78013BFB70FB781B09DAB20D4B5A71E3
:101DA000FB7803F00F03DAB20A4B1A71094B5B7927
:101DB00003F590139B021A46064B1A607B68054A8E
:101DC00092E8030083E8030078680C37BD465DF8AD
:101DD000047B7047083C002090B585B000AF0446F6
:101DE000084611461A462346FB710346BB710B4653
:101DF0007B7113463B7107F10803FA7911461846C7
:101E0000FFF7BCFF654BDB6C7A7B114601228A40F1
:101E10001146624A0B43D364BB68DA683B7B5B00C4
:101E2000032101FA03F3DB431946BB680A40DA6079
:101E3000BB68DA6839793B7B5B0001FA03F319462A
:101E4000BB680A43DA60BB685A683B7B19460123CA
:101E50008B40DB431946BB680A405A60BB685A682E
:101E60007B79397B8B401946BB680A435A60BB6853
:101E70009A683B7B5B00032101FA03F3DB431946BD
:101E8000BB680A409A6097F82030042B0BD0BB68DF
:101E90009A6897F820103B7B5B0001FA03F3194620
:101EA000BB680A439A60BB79032B5BD9BB681A688D
:101EB0003B7B5B00032101FA03F3DB431946BB685C
:101EC0000A401A60BB681A683B7B5B00022101FA7A
:101ED00003F31946BB680A431A60BB683A7BD20811
:101EE000D0B20246083253F822203B7B9B000F21E0
:101EF00001FA03F3DB431946BB68114000F1080205
:101F000043F822103B7B072B15D8BB683A7BD208DD
:101F1000D0B20246083253F82220BB79191F3B7B0E
:101F20009B0001FA03F31946BB68114300F1080254
:101F300043F822102DE0BB683A7BD208D0B20246AB
:101F4000083253F82220BB79191F3B7B083B9B00CA
:101F500001FA03F31946BB68114300F1080243F884
:101F6000221016E0BB681A683B7B5B00032101FA74
:101F700003F3DB431946BB680A401A60BB681A6862
:101F8000B9793B7B5B0001FA03F31946BB680A434E
:101F90001A6000BF1437BD4690BD00BF001002405C
:101FA00080B584B000AF03460A46FB711346BB718F
:101FB000BB79002B02D0BB79012B13D107F10803A9
:101FC000FA7911461846FFF7D9FE3B7B1A46BB79D2
:101FD000002B01D1102300E00023134401229A407A
:101FE000BB689A6100BF1037BD4680BD80B584B024
:101FF00000AF0346FB7107F10803FA791146184652
:10200000FFF7BCFEBB685A693B7B194601238B4036
:102010001946BB684A405A6100BF1037BD4680BDB3
:1020200080B584B000AF0346FB7107F10803FA796D
:1020300011461846FFF7A2FEBB681B693A7B1146A2
:1020400001228A4013403A7BD340DBB21846103756
:10205000BD4680BD80B586B002AF03460A46FB711F
:102060001346BB71FB79002B7CD0404B1B6E3F4A63
:1020700043F001031366F87904230093002301223F
:102080000021FFF7A9FEFB79013BFB71FB791B09DE
:10209000FB73FB7903F00F03BB73354B1B68BA7BF3
:1020A000012101FA02F21146314A0B431360BB7958
:1020B000002B0AD12E4B9B68BA7B012101FA02F258
:1020C00011462B4A0B43936024E0BB79012B0AD1C4
:1020D000274BDB68BA7B012101FA02F21146244A40
:1020E0000B43D36016E0BB79022B13D1204B9B68C6
:1020F000BA7B012101FA02F211461D4A0B4393609B
:102100001B4BDB68BA7B012101FA02F21146184A27
:102110000B43D360174ABB7B9B08D8B203460233FC
:1021200052F82330F97BBA7B02F00302920001FAE5
:1021300002F210491A43831C41F82320BB7B042B75
:1021400003D80A20FFF7FCFD0CE0BB7B092B03D86A
:102150001720FFF7F5FD05E0BB7B0F2B02D82820E9
:10216000FFF7EEFD00BF1037BD4680BD00100240F6
:10217000000401400000014080B483B000AF7860EB
:102180007B68284A934206D1274B9B6D264A43F42D
:102190000013936514E07B68244A934206D1224BD6
:1021A0009B6D214A43F48003936509E07B68204AD4
:1021B000934230D11C4B9B6D1B4A43F40003936543
:1021C0007B685B6843F000727B685A607B68DB6801
:1021D00023F400427B68DA607B681B6823F40022EA
:1021E0007B681A607B681B6823F400327B681A6086
:1021F0007B6840F614621A617B68DB6823F4FF6336
:1022000023F006037A68D3607B681B6843F0010201
:102210007B681A6000E000BF0C37BD465DF8047BA8
:10222000704700BF005400400010024000580040BA
:10223000005C004080B485B000AFF860B9607A609F
:102240003B60FB685A68FB695B0D03F480610B4BD4
:102250000B43DB431A40B9687B6819433B681B0496
:102260001943BB691943FB690B431A43FB685A6066
:1022700000BF1437BD465DF8047B7047FF7BFF034A
:1022800080B485B000AF03460A46FB711346BB71AC
:1022900041F28833FB60FA79BB799A4204D1FB683A
:1022A0005A1EFA60002BF6DAFB68002B01D10123DD
:1022B00000E0002318461437BD465DF8047B7047E4
:1022C00080B483B000AF78607B6801229A617B683C
:1022D000DB6943F010027B68DA617B68DB6943F4F9
:1022E00080727B68DA617B68DB6943F020027B687F
:1022F000DA617B689B6903F40073012B05D17B686D
:102300009B6943F400727B689A617B689B6903F464
:102310000043012B0BD17B681B6823F001027B6813
:102320001A607B681B6843F001027B681A6000BF7B
:102330000C37BD465DF8047B704780B58AB002AFAC
:10234000F8607B600B46FB721346BB72BB7A002BB6
:1023500002D0BB7A042B01D90123A3E041F28833D8
:102360007B6100237B770023FB770023BB77FB7A1D
:102370005B00DBB2BB61F868FFF7A2FFBB7A4B4A98
:102380000192002200920022B969F868FFF752FF1B
:1023900000BFFB689B6903F00103002B04D17B693C
:1023A0005A1E7A61002BF4DA7B69002B01DC0123D1
:1023B00078E0BB7AFB77BB7A013BDBB2BB7723E0EB
:1023C00097F91E30DB007A6822FA03F3DBB21A4673
:1023D000FB689A6200BFFB689B6903F00103002B56
:1023E00004D17B695A1E7A61002BF4DA7B69002BD9
:1023F00001DC012356E0FB7F013BFB7797F91E30A0
:10240000DBB2013BDBB2BB77FB7F002BD8D100BF37
:10241000FB689B6903F04003002B04D17B695A1EC3
:102420007A61002BF4DA7B69002B01DC012339E0AF
:102430001F4B01934FF00073009301230022B969F1
:10244000F868FFF7F7FE00BFFB689B6903F0040321
:10245000002B04D17B695A1E7A61002BF4DA7B6968
:10246000002B01DC01231DE0FB685B6A7B7700BF6A
:10247000FB689B6903F02003002B04D17B695A1E83
:102480007A61002BF4DA7B69002B01DC012309E07F
:10249000FB68DB6943F02002FB68DA61BB6A7A7F84
:1024A0001A70002318462037BD4680BD00200080EA
:1024B0000024008080B588B002AFF8607B600B46D6
:1024C000FB721346BB7241F288333B61BB7A002B2F
:1024D00002D0BB7A042B01D90123E2E000237B75F3
:1024E00000233B750023FB750023BB75FB7A5B0063
:1024F000FB72F868FFF7E4FE00BFFB689B6903F41A
:102500000043012B04D13B695A1E3A61002BF4DAD7
:102510003B69002B01DC0123C3E0F97ABB7A634AF3
:102520000192002200920022F868FFF783FE00BFAC
:10253000FB689B6903F00103002B04D13B695A1E21
:102540003A61002BF4DA3B69002B01DC0123A8E09F
:10255000FB685B6843F40052FB685A60BB7AFB750A
:10256000BB7A013BDBB2BB7523E097F91630DB0089
:102570007A6822FA03F3DBB21A46FB689A6200BF5C
:10258000FB689B6903F00103002B04D13B695A1ED1
:102590003A61002BF4DA3B69002B01DC012380E077
:1025A000FB7D013BFB7597F91630DBB2013BDBB2DB
:1025B000BB75FB7D002BD8D100BFFB689B6903F086
:1025C0004003002B04D13B695A1E3A61002BF4DA18
:1025D0003B69002B01DC012363E0F97A344B019362
:1025E0004FF00073009302230022F868FFF722FEE9
:1025F00000BFFB689B6903F00403002B04D13B6917
:102600005A1E3A61002BF4DA3B69002B01DC0123EE
:1026100047E0FB685B6A7B7500BFFB689B6903F062
:102620000403002B04D13B695A1E3A61002BF4DAF3
:102630003B69002B01DC012333E0FB685B6A3B75DF
:1026400000BFFB689B6903F02003002B04D13B69AA
:102650005A1E3A61002BF4DA3B69002B01DC01239E
:102660001FE0FB68DB6943F02002FB68DA6197F842
:102670002030002B0AD07B7D1B021AB23B7D1BB29F
:1026800013431BB29AB27B6A1A8009E03B7D1B029E
:102690001AB27B7D1BB213431BB29AB27B6A1A80BB
:1026A000002318461837BD4680BD00BF00200080BB
:1026B0000024008080B58AB002AFF8607B600B46D2
:1026C000FB721346BB7241F288337B61BB7A002BED
:1026D00002D0BB7A042B01D90123E9E000237B77E8
:1026E00000233B770023FB760023FB770023BB7797
:1026F000FB7A5B00FB72F868FFF7E2FD00BFFB6846
:102700009B6903F40043012B04D17B695A1E7A6153
:10271000002BF4DA7B69002B01DC0123C8E0F97A95
:10272000BB7A654A0192002200920022F868FFF706
:1027300081FD00BFFB689B6903F00103002B04D1FE
:102740007B695A1E7A61002BF4DA7B69002B01DC6D
:102750000123ADE0FB685B6843F40052FB685A60FC
:10276000BB7AFB77BB7A013BDBB2BB7723E097F9FF
:102770001E30DB007A6822FA03F3DBB21A46FB68EC
:102780009A6200BFFB689B6903F00103002B04D130
:102790007B695A1E7A61002BF4DA7B69002B01DC1D
:1027A000012385E0FB7F013BFB7797F91E30DBB20D
:1027B000013BDBB2BB77FB7F002BD8D100BFFB68AE
:1027C0009B6903F04003002B04D17B695A1E7A6198
:1027D000002BF4DA7B69002B01DC012368E0F97A35
:1027E000364B01934FF00073009303230022F868E7
:1027F000FFF720FD00BFFB689B6903F00403002B7B
:1028000004D17B695A1E7A61002BF4DA7B69002BB4
:1028100001DC01234CE0FB685B6A7B7700BFFB684F
:102820009B6903F00403002B04D17B695A1E7A6173
:10283000002BF4DA7B69002B01DC012338E0FB6814
:102840005B6A3B7700BFFB689B6903F00403002BC6
:1028500004D17B695A1E7A61002BF4DA7B69002B64
:1028600001DC012324E0FB685B6AFB7600BFFB68A8
:102870009B6903F02003002B04D17B695A1E7A6107
:10288000002BF4DA7B69002B01DC012310E0FB68EC
:10289000DB6943F02002FB68DA617B7F1A043B7F2F
:1028A0001B021A43FB7E13431A46BB6A1A600023BD
:1028B00018462037BD4680BD0020008000240080DF
:1028C00080B588B002AFF8607B600B46FB721346A0
:1028D000BB7241F288333B61BB7A002B02D0BB7ADA
:1028E000042B01D90123BEE03B8C7B753B8C1B0A7A
:1028F0009BB23B750023FB750023BB75FB7A5B0025
:10290000FB72F868FFF7DCFC00BFFB689B6903F40F
:102910000043012B04D13B695A1E3A61002BF4DAC3
:102920003B69002B01DC01239DE0F97ABB7A02337D
:102930001A464F4B01934FF0007300931346002249
:10294000F868FFF777FC00BFFB689B6903F00103A1
:10295000002B04D13B695A1E3A61002BF4DA3B6923
:10296000002B01DC01237EE0BB7AFB75BB7A013BC7
:10297000DBB2BB7523E097F91630DB007A6822FAE8
:1029800003F3DBB21A46FB689A6200BFFB689B69DF
:1029900003F00103002B04D13B695A1E3A61002B5E
:1029A000F4DA3B69002B01DC01235CE0FB7D013B99
:1029B000FB7597F91630DBB2013BDBB2BB75FB7DD3
:1029C000002BD8D13A7DFB689A6200BFFB689B69F7
:1029D00003F00103002B04D13B695A1E3A61002B1E
:1029E000F4DA3B69002B01DC01233CE07A7DFB68D3
:1029F0009A6200BFFB689B6903F00103002B04D1BE
:102A00003B695A1E3A61002BF4DA3B69002B01DC6A
:102A1000012328E000BFFB689B6903F00103002B42
:102A200004D13B695A1E3A61002BF4DA3B69002B52
:102A300001DC012317E000BFFB689B6903F0200362
:102A4000002B04D13B695A1E3A61002BF4DA3B6932
:102A5000002B01DC012306E0FB68DB6943F0200268
:102A6000FB68DA61002318461837BD4680BD00BFF9
:102A70000020008080B588B002AFF8607B600B4614
:102A8000FB721346BB7241F288333B61BB7A002B69
:102A900002D0BB7A042B01D901239AE00023FB75F5
:102AA0000023BB75FB7A5B00FB72F868FFF708FC3C
:102AB00000BFFB689B6903F40043012B04D13B6911
:102AC0005A1E3A61002BF4DA3B69002B01DC01232A
:102AD0007FE0F97ABB7A02331A46404B01934FF0FC
:102AE0000073009313460022F868FFF7A3FB00BFB2
:102AF000FB689B6903F00103002B04D13B695A1E5C
:102B00003A61002BF4DA3B69002B01DC012360E021
:102B1000BB7AFB75BB7A013BDBB2BB7523E097F94F
:102B20001630DB007A6822FA03F3DBB21A46FB6840
:102B30009A6200BFFB689B6903F00103002B04D17C
:102B40003B695A1E3A61002BF4DA3B69002B01DC29
:102B500001233EE0FB7D013BFB7597F91630DBB2AC
:102B6000013BDBB2BB75FB7D002BD8D197F8202051
:102B7000FB689A6200BFFB689B6903F00103002BAE
:102B800004D13B695A1E3A61002BF4DA3B69002BF1
:102B900001DC01231DE0FB685B6843F48042FB68B5
:102BA0005A6000BFFB689B6903F02003002B04D12F
:102BB0003B695A1E3A61002BF4DA3B69002B01DCB9
:102BC000012306E0FB68DB6943F02002FB68DA6161
:102BD000002318461837BD4680BD00BF0020008086
:102BE00080B485B000AF78600B46FB707B681B68D3
:102BF000DB6903F00803002B07D07B681B681A6AA7
:102C00007B681B6842F008021A627B681B68DB69FC
:102C100003F00203002B07D07B681B681A6A7B68ED
:102C20001B6842F002021A627B681B68DB6903F0D2
:102C30000403002B07D07B681B681A6A7B681B683B
:102C400042F004021A6200BF7B681B68DB6903F074
:102C50004003002BF8D0FB78012B02D0FB789AB20E
:102C600000E0FF227B681B681A8500BF7B681B6839
:102C7000DB6903F04003002BF8D000BF7B681B68C2
:102C8000DB6903F02003002BF8D07B681B689B8C6A
:102C90009BB2FB73FB7B18461437BD465DF8047B83
:102CA000704780B582B000AF7860FF217868FFF789
:102CB00097FF0346FF2B0CBF01230023DBB218460E
:102CC0000837BD4680BD80B584B000AF78607B68B2
:102CD0001B6801224FF41651184602F05DFEF021E8
:102CE0007868FFF77DFF0346FB737B681B68012252
:102CF0004FF4E131184602F04FFEFB7BF02B01D17F
:102D0000012300E0002318461037BD4680BD80B582
:102D100084B000AF78600023FB730023BB7310E026
:102D20007868FFF7BEFF03461A46BB7B02FA03F33F
:102D30005AB297F90F3013435BB2FB73BB7B01337D
:102D4000BB73BB7B072BEBD9FB7B18461037BD460B
:102D500080BD90B587B000AFF860B9601346FB71D5
:102D60000023FB750AE0FB7DBA68D418F868FFF70A
:102D7000CEFF03462370FB7D0133FB75FA7DFB79A3
:102D80009A42F0D300BF00BF1C37BD4690BD80B54E
:102D900084B000AF78600B46FB700023FB73002308
:102DA000BB731FE0FA78BB7B42FA03F3DBB203F09C
:102DB00001037B737B7B19467868FFF711FF03469D
:102DC000FF2B0CBF01230023DBB21A46BB7B02FAA8
:102DD00003F35AB297F90F3013435BB2FB73BB7B1B
:102DE0000133BB73BB7B072BDCD9FB7B1846103749
:102DF000BD4680BD80B586B000AFF860B9601346AF
:102E0000FB710023FB750AE0FB7DBA6813441B7855
:102E10001946F868FFF7BBFFFB7D0133FB75FA7DB0
:102E2000FB799A42F0D300BF00BF1837BD4680BD82
:102E300080B485B000AF78600023FB7316E0FB7BA5
:102E4000DB007A6813440433BB600023BB7307E0E4
:102E5000BB7BBA68134400221A70BB7B0133BB737F
:102E6000BB7B072BF4D9FB7B0133FB73FB7B132B61
:102E7000E5D908E07B7B7A681344002283F8BC2004
:102E80007B7B01337B737B7B072BF3D97B684022F1
:102E9000C3F8B82000BF1437BD465DF8047B704707
:102EA00080B586B000AF786039607868FFF70BFFB7
:102EB0000346012B01D1002391E0F0217868FFF750
:102EC00066FF0023FB75FF23BB7564E0FB7DDB0819
:102ED000FB74FB7C3A681344FB6000237B757868C5
:102EE000FFF7DFFE0346FB727868FFF7DAFE034662
:102EF000BB72FA7ABB7A9A4202D0FB7A7B7530E0D9
:102F0000FA7ABB7A9A4229D1FB7A002B26D1FA7D34
:102F10007B68D3F8B8309A4202D101237B7517E061
:102F2000FA7D7B68D3F8B8309A4202DD00237B75C6
:102F30000EE0FB7C7A68134493F8BC301A46FB7DA4
:102F400003F0070342FA03F3DBB203F001037B75DE
:102F50007B7D002B05D1FB7DBB7502E04FF0FF337D
:102F60003DE07B7D002B0ED0FB681B785AB2FB7DC9
:102F700003F00703012101FA03F35BB213435BB2D1
:102F8000DAB2FB681A707B7D19467868FFF728FE75
:102F9000FB7D0133FB75FB7D3F2B97D997F91620FD
:102FA0007B68C3F8B82000233B750CE03B7D3A6892
:102FB0001A443B7D11787A6813440A4683F8BC2092
:102FC0003B7D01333B753B7D062BEFD97B68D3F806
:102FD000B830002BCCBF01230023DBB25BB2184614
:102FE0001837BD4680BD80B485B000AF78600B4611
:102FF000FB700023FB7322E07B685A1C7A601B780D
:10300000BB7308237B7317E0FA7BBB7B5340DBB2B7
:1030100003F001033B73FB7B5B08FB733B7B002BE3
:1030200004D0FB7B83F07303DB43FB73BB7B5B0848
:10303000BB737B7B013B7B737B7B002BE4D1FB78F9
:103040005A1EFA70002BD7D1FB7B18461437BD46A9
:103050005DF8047B704790B585B000AF78600023C1
:10306000FB730123BB737868FFF7E2FE38E097F942
:103070000F30DB007A681344043319467868FFF791
:103080000FFF0346BB7397F90F30DB007A681344D8
:10309000043397F90F4008211846FFF7A4FF0346B1
:1030A0001A467B68234483F8A42097F90E30002B3E
:1030B00002DA4FF0FF331DE097F90E30002B05D0F8
:1030C00097F90F30DBB20133DBB2FB7397F90E30A7
:1030D000002B05D197F90F30002B01D1002309E017
:1030E00097F90E30002B03D097F90F30132BBEDD6C
:1030F00097F90F3018461437BD4690BD80B584B09F
:1031000000AF786039607868FFF7DDFD0346FB7338
:10311000FB7B012B01D1FB7B09E055217868FFF790
:1031200036FE082239687868FFF764FEFB7B184694
:103130001037BD4680BD000080B487B000AFF86096
:10314000B9607A603B60584A7B681360FB68574AF5
:10315000934206D1564B1B6E554A43F400631366E7
:1031600014E0FB68534A934206D1514B1B6E504A00
:1031700043F48033136609E0FB68B3F1804F05D157
:103180004B4B9B6D4A4A43F001039365FB68022257
:103190009A627A6813465B001344474A92FBF3F342
:1031A0007B617A69FB68DA62BB68013B032B5BD801
:1031B00001A252F823F000BFC9310008F131000824
:1031C00019320008413200087B693A6802FB03F3B8
:1031D0003A4A82FB03125211DB17D31A1A46FB68D4
:1031E0005A63FB689B6943F07002FB689A613CE09C
:1031F0007B693A6802FB03F3304A82FB03125211E7
:10320000DB17D31A1A46FB689A63FB689B6943F481
:10321000E042FB689A6128E07B693A6802FB03F3AD
:10322000264A82FB03125211DB17D31A1A46FB6897
:10323000DA63FB68DB6943F07002FB68DA6114E073
:103240007B693A6802FB03F31C4A82FB03125211AA
:10325000DB17D31A1A46FB681A64FB68DB6943F470
:10326000E042FB68DA6100E000BFFB685B6C43F49E
:103270000042FB685A64FB681B6823F01002FB687D
:103280001A60FB681B6823F06002FB681A60FB6829
:103290001B6843F00102FB681A6000BF1C37BD4683
:1032A0005DF8047B704700BF143C0020002C0140F7
:1032B000001002400040014000093D001F85EB5115
:1032C00080B483B000AF786039607B681B6A3A686D
:1032D000013A9200032101FA02F21A437B681A6252
:1032E00000BF0C37BD465DF8047B704780B483B0E7
:1032F00000AF78607B681B6A43F44C527B681A62AB
:1033000000BF0C37BD465DF8047B704780B483B0C6
:1033100000AF78607B681B6A23F44C527B681A62AA
:1033200000BF0C37BD465DF8047B704780B485B0A4
:1033300000AFF860B9607A60BB68012B14D1314BE3
:103340001A6813465B0013442F4A92FBF3F37A6822
:1033500002FB03F32D4A82FB03125211DB17D31A2F
:103360001A46FB685A6346E0BB68022B14D1254B12
:103370001A6813465B001344234A92FBF3F37A68FE
:1033800002FB03F3214A82FB03125211DB17D31A0B
:103390001A46FB689A632EE0BB68032B14D1194BC5
:1033A0001A6813465B001344174A92FBF3F37A68DA
:1033B00002FB03F3154A82FB03125211DB17D31AE7
:1033C0001A46FB68DA6316E0BB68042B13D10D4B79
:1033D0001A6813465B0013440B4A92FBF3F37A68B6
:1033E00002FB03F3094A82FB03125211DB17D31AC3
:1033F0001A46FB681A6400BF1437BD465DF8047BAB
:10340000704700BF143C002000093D001F85EB51B0
:1034100080B483B000AF786039607B681B6A3A681B
:10342000013A9200032101FA02F2D2431A407B686A
:103430001A6200BF0C37BD465DF8047B704780B44C
:1034400083B000AF78607B680022DA617B6800227D
:103450009A617B6800225A637B6800229A637B68CA
:103460000022DA637B6800221A647B6800221A62F9
:103470007B680022DA627B68074A934205D1074BDA
:103480001B6E064A23F40063136600BF0C37BD466B
:103490005DF8047B704700BF002C01400010024023
:1034A00080B487B000AF474B1B6803F40033002B98
:1034B0000CD1444B1B68434A43F48033136000BF74
:1034C000404B1B6803F40033002BF9D03D4B1B68C5
:1034D0003C4A23F0807313603A4BDB68394A43F06F
:1034E0000303D360374BDB68364A23F07003D360A5
:1034F000344BDB68334A23F4FE43D360314BDB6843
:10350000304A43F45063D3602E4BDB682D4A43F0BE
:103510008073D3602B4B1B682A4A43F0807313607F
:1035200000BF284B1B6803F00073002BF9D0264B1B
:103530001B68254A23F007031360234B1B68224AAC
:1035400043F00303136010237B614FF480733B61EE
:103550004FF40063FB600423FB721A4B9A6879698D
:103560003B691943FB680B43164913438B60154BAA
:103570009B68144A43F003039360124B1B68114A83
:1035800023F48073136000237B60FA7A7B691B0944
:10359000B2FBF3F31A04F97AFB68DB0AB1FBF3F32D
:1035A0001A43F97A3B691B0AB1FBF3F31B0213437D
:1035B0007A6813437B607B6818461C37BD465DF80C
:1035C000047B7047001002400020024080B487B0A6
:1035D00000AF414B1B68404A43F48073136000BF47
:1035E0003D4B1B6803F48063002BF9D03A4B1B68FA
:1035F000394A23F080731360374BDB68364A43F057
:103600000203D360344BDB68334A23F07003D3608A
:10361000314BDB68304A23F4FE43D3602E4BDB682A
:103620002D4A43F42063D3602B4BDB682A4A43F0D6
:103630008073D360284B1B68274A43F08073136064
:1036400000BF254B1B6803F00073002BF9D0234B00
:103650001B68224A23F007031360204B1B681F4A94
:1036600043F00303136010237B614FF480733B61CD
:103670004FF40063FB600423FB72174B9A6879696F
:103680003B691943FB680B43134913438B60124B8F
:103690009B68114A43F00303936000237B60FA7A2E
:1036A0007B691B09B2FBF3F31A04F97AFB68DB0AA6
:1036B000B1FBF3F31A43F97A3B691B0AB1FBF3F34D
:1036C0001B0213437A6813437B607B6818461C37E0
:1036D000BD465DF8047B70470010024000200240A8
:1036E00080B483B000AF0346FB7197F90730002B1D
:1036F0000BDBFB7903F01F02074997F907305B09E1
:10370000012000FA02F241F8232000BF0C37BD4629
:103710005DF8047B704700BF00E100E080B483B037
:1037200000AF0346FB7197F90730002B0CDBFB79E8
:1037300003F01F02074997F907305B09012000FADF
:1037400002F2603341F8232000BF0C37BD465DF81C
:10375000047B704700E100E080B483B000AF034613
:103760003960FB7197F90730002B0ADB3B68DAB24E
:103770000C4997F907301201D2B20B4483F80023A9
:103780000AE03B68DAB20849FB7903F00F03043B17
:103790001201D2B20B441A7600BF0C37BD465DF859
:1037A000047B704700E100E000ED00E080B582B0EE
:1037B00000AF0346FB80394B1B68384A43F48073E3
:1037C000136000BF364BDB6803F02003002BF9D0F9
:1037D000334BCA225A62324B53225A62304B9B6897
:1037E0002F4A23F48063936000BF2D4BDB6803F006
:1037F0000403002BF9D02A4AFB885361284B9B68AD
:10380000274A23F002039360254B9B68244A43F028
:1038100004039360234B1B6E03F00103002B05D1BF
:10382000204B1B6E1F4A43F0010313661E4B1B689F
:103830001D4A43F4801313601B4B9B681A4A43F4E0
:10384000801393600320FFF74BFF0320FFF766FF11
:1038500000210320FFF780FF114BDB6803F4806336
:10386000002B05D00E4BDB680D4A23F48063D36038
:103870000B4B9B680A4A43F480439360084B9B6858
:10388000074A43F480639360054BFF225A6262B695
:1038900000BF00BF0837BD4680BD00BF00700040BC
:1038A00000280040001002400004014080B483B0B2
:1038B00000AF7860184B1B68174A43F4807313609D
:1038C000164BCA225A62154B53225A62134BDB68BD
:1038D000124A43F08003D36000BF104BDB6803F053
:1038E0004003002BF9D00D4A7B6813600B4BDB685B
:1038F0000A4A23F08003D360084BFF225A62064B2A
:103900001B68054A23F48073136000BF0C37BD4663
:103910005DF8047B704700BF007000400028004045
:1039200080B485B000AF78600023FB607B681B79B2
:10393000284AA2FB0323DB08DBB218057B681A794F
:10394000244BA3FB0213D9080B469B000B445B00DE
:10395000D31ADBB21B0403431A46FB681343FB6014
:103960007B685B791B4AA2FB0323DB08DBB21803ED
:103970007B685A79174BA3FB0213D9080B469B00AF
:103980000B445B00D31ADBB21B0203431A46FB68ED
:103990001343FB607B689B790E4AA2FB0323DB0881
:1039A000DBB218017B685A790A4BA3FB0213D908D2
:1039B0000B469B000B445B00D31ADBB203431A4651
:1039C000FB681343FB60FB6818461437BD465DF87F
:1039D000047B7047CDCCCCCC80B485B000AF786090
:1039E0000023FB607B681B782C4AA2FB0323DB08C7
:1039F000DBB218057B681A78284BA3FB0213D908A1
:103A00000B469B000B445B00D31ADBB21B04034341
:103A10001A46FB681343FB607B685B785B031A46BE
:103A2000FB681343FB607B689B781C4AA2FB032363
:103A3000DB08DBB218037B689A78184BA3FB0213F0
:103A4000D9080B469B000B445B00D31ADBB21B0268
:103A500003431A46FB681343FB607B68DB780F4A1D
:103A6000A2FB0323DB08DBB218017B68DA780B4B7F
:103A7000A3FB0213D9080B469B000B445B00D31A2F
:103A8000DBB203431A46FB681343FB60FB6818462E
:103A90001437BD465DF8047B704700BFCDCCCCCC5D
:103AA00080B483B000AF7860184B1B68174A43F4AA
:103AB00080731360164BCA225A62154B53225A6206
:103AC000134BDB68124A43F08003D36000BF104BF6
:103AD000DB6803F04003002BF9D00D4A7B6853608C
:103AE0000B4BDB680A4A23F08003D360084BFF22AC
:103AF0005A62064B1B68054A23F48073136000BFAB
:103B00000C37BD465DF8047B704700BF0070004075
:103B10000028004080B485B000AF78600023FB60CF
:103B20000023BB606D4B1B686C4A43F480731360C9
:103B30006B4BCA225A626A4B53225A62684BDB684B
:103B4000674A43F08003D36000BF654BDB6803F036
:103B50004003002BF9D07B681B79624AA2FB032348
:103B6000DB08DBB218057B681A795E4BA3FB0213F6
:103B7000D9080B469B000B445B00D31ADBB21B0435
:103B800003431A46FB681343FB607B685B79554A25
:103B9000A2FB0323DB08DBB218037B685A79514B85
:103BA000A3FB0213D9080B469B000B445B00D31AFE
:103BB000DBB21B0203431A46FB681343FB607B68BE
:103BC0009B79484AA2FB0323DB08DBB218017B6820
:103BD0005A79444BA3FB0213D9080B469B000B44B4
:103BE0005B00D31ADBB203431A46FB681343FB6046
:103BF0003B4AFB6813607B681B783A4AA2FB0323AD
:103C0000DB08DBB218057B681A78364BA3FB02137E
:103C1000D9080B469B000B445B00D31ADBB21B0494
:103C200003431A46BB681343BB607B685B785B0346
:103C30001A46BB681343BB607B689B78294AA2FB8A
:103C40000323DB08DBB218037B689A78254BA3FBC0
:103C50000213D9080B469B000B445B00D31ADBB25E
:103C60001B0203431A46BB681343BB607B68DB78C7
:103C70001C4AA2FB0323DB08DBB218017B68DA785D
:103C8000184BA3FB0213D9080B469B000B445B00A7
:103C9000D31ADBB203431A46BB681343BB60104A16
:103CA000BB6853600E4B9B680D4A23F04003936042
:103CB0000B4BDB680A4A23F08003D360084BFF22DA
:103CC0005A62064B1B68054A23F48073136000BFD9
:103CD0001437BD465DF8047B704700BF007000409C
:103CE00000280040CDCCCCCC80B400AF4F4B9B6DB6
:103CF0004E4A43F0805393654C4BD3F8903003F415
:103D00000043002B40F08B80494BDB6803F010032D
:103D1000002B01D0002383E0464B1B68454A43F447
:103D200080731360414BD3F8903003F40043002BB1
:103D30000FD13E4BD3F890303C4A43F48033C2F865
:103D400090303A4BD3F89030384A23F48033C2F89D
:103D50009030364BD3F89030344A43F00103C2F828
:103D6000903000BF314BD3F8903003F00203002BAA
:103D7000F8D02E4BD3F890302C4A43F48073C2F81D
:103D800090302A4BD3F89030284A23F40073C2F8BD
:103D90009030264BD3F89030244A43F40043C2F8C5
:103DA0009030234BCA225A62214B53225A62204B35
:103DB000DB681F4A43F08003D36000BF1C4BDB6805
:103DC00003F04003002BF9D0194B1B69184A43F448
:103DD000FE0343F0FF031361154B00221A60144BDE
:103DE00000225A60124B9B68114A23F040039360F3
:103DF0000F4BDB6B0E4A43F48053D3630C4BDB68F1
:103E00000B4A23F08003D360094BFF225A62094B0F
:103E10001B68084A23F480731360012300E0002329
:103E20001846BD465DF8047B704700BF0010024095
:103E3000002800400070004080B485B000AF78607A
:103E40000B46FB70204B9B6D03F08053002B05D17C
:103E50001D4B9B6D1C4A43F0805393651B4B1B68A5
:103E60001A4A43F48073136000BF194BDB6803F0F8
:103E70002003002BF9D0164BCA225A62144B53224E
:103E80005A620023FB730CE0FB7B9B007A681A44A8
:103E9000F97B104B0B44194613680B60FB7B013315
:103EA000FB73FA7BFB789A42EED3094BFF225A62EE
:103EB000064B1B68054A23F48073136000BF143758
:103EC000BD465DF8047B7047001002400070004062
:103ED000002800405028004080B483B000AF034663
:103EE0003960FB711B4B9B6D03F08053002B05D198
:103EF000184B9B6D174A43F080539365164B1B6814
:103F0000154A43F48073136000BF144BDB6803F061
:103F10002003002BF9D0114BCA225A620F4B5322B7
:103F20005A62FB7914339B0003F1804303F520535D
:103F30001A463B681360094BFF225A62064B1B6806
:103F4000054A23F48073136000BF0C37BD465DF84B
:103F5000047B7047001002400070004000280040C1
:103F600080B485B000AFF860B9607A60BB681A7839
:103F7000FB681B78D31ADAB27B681A70BB689A7830
:103F8000FB689B78D31ADAB27B689A70BB68DA78E0
:103F9000FB68DB78D31ADAB27B68DA70BB681A790F
:103FA000FB681B79D31ADAB27B681A71BB685A793D
:103FB000FB685B79D31ADAB27B685A71BB689A796D
:103FC000FB689B79D31ADAB27B689A7100BF143709
:103FD000BD465DF8047B704780B485B000AF786063
:103FE0007B689B78022B94BF01230023DBB2FB7319
:103FF0007B681A78FB7BD31ADBB2BB737B689A7839
:10400000FB7B194649000B449B00DBB21344DBB237
:10401000033B7B737B68DB78013B7A7B204931F87B
:1040200012201A4497F90E3040F26D1101FB03F390
:104030001A4497F90E30002B00DA03339B105BB261
:104040001A4497F90E30174981FB03014911DB1718
:10405000CB1A5BB2D21A97F90E30124981FB0301D9
:10406000C911DB17CB1A13440F4A03FB02F27B681A
:104070001B7919464FF4616301FB03F31A447B6813
:104080005B7919460B461B015B1A9B0013447A6847
:104090009279134418461437BD465DF8047B704787
:1040A000ECAE00081F85EB518051010080B485B053
:1040B00000AF786000BF4D4BDB6803F02003002B9E
:1040C000F9D00023FB600023BB60484B1B68FB60FA
:1040D000FB681B0DDBB203F00303DBB21A46920050
:1040E00013445B00DAB2FB681B0CDBB203F00F0376
:1040F000DBB21344DAB27B681A71FB681B0BDBB2CC
:1041000003F00703DBB21A46920013445B00DAB2F5
:10411000FB681B0ADBB203F00F03DBB21344DAB215
:104120007B685A71FB681B09DBB203F00703DBB243
:104130001A46920013445B00DAB2FB68DBB203F06C
:104140000F03DBB21344DAB27B689A71274B5B68CA
:10415000BB60BB681B0DDBB203F00F03DBB21A467A
:10416000920013445B00DAB2BB681B0CDBB203F0B5
:104170000F03DBB21344DAB27B681A70BB681B0B07
:10418000DBB203F00103DBB21A46920013445B007A
:10419000DAB2BB681B0ADBB203F00F03DBB21344D5
:1041A000DAB27B689A70BB681B09DBB203F00303C9
:1041B000DBB21A46920013445B00DAB2BB68DBB292
:1041C00003F00F03DBB21344DAB27B68DA70BB682A
:1041D0005B0BDBB203F00703DAB27B685A7000BFF7
:1041E0001437BD465DF8047B704700BF00280040CF
:1041F00080B483B000AF7860254BDB691B0FDBB266
:1042000003F00303DBB21A46920013445B00DAB2F8
:104210001F4BDB691B0EDBB203F00F03DBB2134451
:10422000DAB27B68DA701A4BDB691B0DDBB203F084
:104230000303DBB21A46920013445B00DAB2144B5C
:10424000DB691B0CDBB203F00F03DBB21344DAB201
:104250007B681A710E4BDB691B0BDBB203F00703A3
:10426000DBB21A46920013445B00DAB2084BDB69FA
:104270001B0ADBB203F00F03DBB21344DAB27B6834
:104280005A7100BF0C37BD465DF8047B704700BF14
:104290000028004080B500AF3F4B1B683E4A43F406
:1042A0008073136000BF3D4BDB6803F02003002BDD
:1042B000F9D03A4BCA225A62384B53225A62374BD2
:1042C0009B68364A23F480739360344BDB68334A2F
:1042D00023F48073D36000BF304BDB6803F001032D
:1042E000002BF9D02D4BDB692C4A43F00043D361FE
:1042F0002A4BDB69294A43F40003D361274BDB696E
:10430000264A43F40043D361244BDB69234A23F05C
:104310008003D361214BDB69204A23F08043D361C2
:104320001E4BDB691D4A23F48003D3611C4B1B6EBB
:1043300003F00103002B05D1194B1B6E184A43F003
:1043400001031366174B1B68164A43F4802313605E
:10435000144B9B68134A43F4802393602920FFF792
:10436000BFF92920FFF7DAF900212920FFF7F4F936
:104370000A4B9B68094A43F480539360074BFF2222
:104380005A62054B1B68044A23F48073136062B6BB
:1043900000BF00BF80BD00BF00700040002800408B
:1043A000001002400004014080B582B000AF786088
:1043B000494B1B68484A43F48073136000BF474B66
:1043C000DB6803F02003002BF9D0444BCA225A6269
:1043D000424B53225A62414B9B68404A23F48073FC
:1043E000936000BF3D4BDB6803F00103002BF9D065
:1043F0003A4BDB697A68527912071146374A0B4308
:10440000D361364BDB697A68927912061146334ADA
:104410000B43D361314BDB697A68D27912051146BF
:104420002E4A0B43D3612D4BDB697A68127A120452
:1044300011462A4A0B43D361284BDB697A68527ACA
:1044400012031146254A0B43D361244BDB697A687A
:10445000927A12021146214A0B43D3611F4B9B688B
:104460001E4A43F4807393601D4B1B6E03F00103DF
:10447000002B05D11A4B1B6E194A43F0010313663A
:10448000184B1B68174A43F480231360154B9B6835
:10449000144A43F4802393602920FFF721F929204F
:1044A000FFF73CF900212920FFF756F90B4B9B68D9
:1044B0000A4A43F480539360084BFF225A62064B2A
:1044C0001B68054A23F48073136062B600BF00BF07
:1044D0000837BD4680BD00BF007000400028004086
:1044E000001002400004014080B582B002AF0223F8
:1044F00000930023002210212920FDF76DFC0223E8
:1045000000930023002210212A20FDF765FC0223DE
:1045100000930023002210212B20FDF75DFC0223D5
:1045200000930023002210212C20FDF755FC0223CC
:1045300000930023002210212D20FDF74DFC0223C3
:1045400000930023002210213320FDF745FC0D4B82
:104550001B6E0C4A43F4806313660A4BDB68094AFE
:1045600043F48013D360074BD3F88830054A43F0F7
:104570000063C2F88830044B44F686125A6000BFCC
:10458000BD4680BD001002400028014080B485B0C7
:1045900000AF03463960FB711346BB804FF4803394
:1045A000FB60224BC5229A63204A3B689360BA881D
:1045B000FB7913431D4A43F48063D360BB88002B0F
:1045C0000DD100BF194B5B6B03F08403002B13D19B
:1045D000FB68013BFB60FB68002BF3D10CE000BFE4
:1045E000124B5B6B03F04503002B05D1FB68013BCD
:1045F000FB60FB68002BF3D10C4B5B6B03F00403F7
:10460000002B02D1FB68002B01D1012308E0074BEE
:104610005B6B03F00103002B01D0022300E00023B9
:1046200018461437BD465DF8047B704700280140EA
:1046300080B485B000AF78600023FB737A68474B85
:104640001340002B00F083807B68002B01DA0B23E2
:10465000FB737B6803F08043002B01D01323FB73B3
:104660007B6803F00053002B01D01423FB737B689D
:1046700003F08053002B01D01523FB737B6803F0FC
:104680000063002B01D01623FB737B6803F080636B
:10469000002B01D01723FB737B6803F08073002B82
:1046A00001D01823FB737B6803F40003002B01D0B7
:1046B0001923FB737B6803F48003002B01D01A23BA
:1046C000FB737B6803F40013002B01D01B23FB73E7
:1046D0007B6803F48013002B01D01C23FB737B68E1
:1046E00003F40023002B01D01D23FB737B6803F42C
:1046F0008023002B01D01E23FB737B6803F400335F
:10470000002B01D01F23FB737B6803F48033002B45
:1047100001D02023FB737B6803F40043002B01D0FE
:104720002123FB737B6803F48043002B01D02223F9
:10473000FB737B6803F40053002B01D02323FB732E
:104740007B6803F00803002B01D02423FB73FB7B61
:1047500018461437BD465DF8047B704708E0FFFD3E
:1047600080B584B000AF03463960FB800023FB7343
:104770002E4B5A693B681A60FB88013B052B47D8D2
:1047800001A252F823F000BFA1470008A14700088A
:10479000B1470008E7470008F5470008034800084C
:1047A0003B681B681846FFF743FF0346FB7337E07F
:1047B0001E4B5A693B68191D396012BA1A601B4BAF
:1047C0009A693B68191D396012BA1A60174BDA6989
:1047D0003B68191D396012BA1A60144B1B6A1ABA69
:1047E0003B681A601CE0114B1B693F2B13D0072359
:1047F000FB7310E00D4B1B69032B0ED00723FB73DB
:104800000BE00A4B1B69082B09D00723FB7306E05A
:104810000723FB7304E000BF02E000BF00E000BF1D
:10482000FB7B18461037BD4680BD00BF0028014005
:1048300080B584B000AF7860402208211020FFF7D7
:10484000A5FE07F10C0319460120FFF789FF034677
:1048500018461037BD4680BD80B584B000AF786083
:10486000402208211020FFF791FE07F108031946A6
:104870000120FFF775FF0346FB73FB7B002B01D084
:10488000FB7B6CE0384BDB8A1B0440221946372047
:10489000FFF77CFE07F1080319460120FFF760FFD0
:1048A0000346FB73FB7B002B01D0FB7B57E02F4BB8
:1048B00040F22A629A632D4B2D4A5A622B4B0822F2
:1048C0009A622A4B3322DA62402200213320FFF71A
:1048D0005DFE07F1080319460120FFF741FF03467B
:1048E000FB73FB7B002B0ED0FB7B38E01F4B5B6B1D
:1048F00003F40013002B06D01C497B681A1D7A6054
:10490000D1F880201A60194B5A6B40F22A63134089
:10491000002BEBD0154B5B6B03F00803002B01D091
:104920000E23FB73114B5B6B03F00203002B01D0D2
:104930000F23FB730D4B5B6B03F02003002B01D0A7
:104940001023FB73094B5B6B03F40073002B01D046
:104950001223FB73054B40F2FF529A63FB7B184610
:104960001037BD4680BD00BF1C3C00200028014020
:10497000009F240080B588B000AF00237B61AB4B63
:1049800000225A60A94B00221A61A84B0022DA606B
:10499000A64B00221A75A54B00221A70A34B0022C9
:1049A000DA82A34B03221A60002200210020FFF7C5
:1049B000EDFD40224FF4D5710820FFF7E7FD0346D7
:1049C000FB76FB7E002B56D13B1D19460620FFF7D8
:1049D000C7FE0346002B01D007237CE17B68C3F3AD
:1049E0000803B3F5D57F01D0062374E14FF080436F
:1049F0007B614FF6FF73FB6125E0402200213720E9
:104A0000FFF7C4FD3B1D19460120FFF7A9FE034631
:104A1000002B01D007235EE17B6943F0004343F4A0
:104A20008013402219462920FFF7B0FD3B1D19468F
:104A30000420FFF795FE0346002B01D007234AE12F
:104A40007B68002B06DBFB69013BFB61FB69002BEC
:104A5000D3D100E000BFFB69002B01D10D233AE167
:104A60007B6803F08043002B01D0042200E0022287
:104A70006E4B1A7070E0FB7E012B6BD1402200213F
:104A80003720FFF783FD4FF6FF73FB6125E04022DF
:104A900000213720FFF77AFD3B1D19460120FFF763
:104AA0005FFE0346002B01D0072314E14022614939
:104AB0002920FFF76BFD0346FB76FB7E012B13D00D
:104AC0003B1D19460420FFF74BFE0346002B01D087
:104AD000072300E17B68002B08DBFB69013BFB61DE
:104AE000FB69002BD3D102E000BF00E000BFFB69EF
:104AF000002B01D10923EEE0FB7E012B03D04B4BB1
:104B000001221A7028E04FF6FF73FB6111E040228A
:104B100048490120FFF73AFD3B1D19460420FFF7E5
:104B20001FFE0346002B01D00723D4E07B68002B37
:104B300006DBFB69013BFB61FB69002BE7D100E071
:104B400000BFFB69002B01D10923C4E0374B0322CE
:104B50001A7001E0FB7EBEE0C02200210220FFF7B8
:104B600015FD0346FB76FB7E002B01D0FB7EB2E0F9
:104B700031490320FFF7F4FD2C4B1B78032B11D098
:104B8000402200210320FFF701FD0346FB76FB7E58
:104B9000002B01D0FB7E9EE03B1D19460520FFF750
:104BA000DFFD11E040224FF480310320FFF7EEFCDF
:104BB0000346FB76FB7E002B01D0FB7E8BE03B1D8A
:104BC00019460320FFF7CCFD7B681B0C9AB2174BEC
:104BD000DA82164BDB8A1B04C02219460920FFF734
:104BE000D5FC0346FB76FB7E002B01D0FB7E72E0FA
:104BF00012490320FFF7B4FD00F0D6F80C4B4FF438
:104C000040725A60094BDB8A1B0440221946072078
:104C1000FFF7BCFC3B1D19460220FFF7A1FD034630
:104C2000FB76FB7E002B0BD0FB7E54E01C3C00206F
:104C30000028014000001080563C0020463C002027
:104C4000274BDB8A1B04402219463720FFF79EFCC6
:104C50003B1D19460120FFF783FD0346FB76FB7ED3
:104C6000002B01D0FB7E36E0402200212A20FFF7F6
:104C70008DFC3B1D19460120FFF772FD0346FB76B4
:104C8000FB7E002B01D0FB7E25E0154B1B78032B10
:104C900002D01448FFF7E0FD114B1B78012B07D021
:104CA0000F4B1B78022B03D00D4B1B78032B11D11C
:104CB00040224FF400711020FFF768FC3B1D19469D
:104CC0000120FFF74DFD0346FB76FB7E002B01D054
:104CD000082300E0002318462037BD4680BD00BFF2
:104CE0001C3C0020663C002080B584B000AF78609A
:104CF0000023FB731F4B1B78032B2CD01D4BDB8A2F
:104D00001B04402219463720FFF740FC07F1080337
:104D100019460120FFF724FD0346FB73FB7B002BA4
:104D200001D0FB7B22E07B68002B01D1002300E057
:104D30000223402219460620FFF728FC07F108034A
:104D400019460120FFF70CFD0346FB73FB7B002B8C
:104D500001D0FB7B0AE0084B5B6823F4C053BB60C7
:104D6000BA6805497B6813434B60FB7B18461037D4
:104D7000BD4680BD1C3C00200028014080B485B0A9
:104D800000AF7860074B5B6823F0FF03FB600549C9
:104D9000FA687B6813434B6000BF1437BD465DF86B
:104DA000047B70470028014080B485B000AFA44B5D
:104DB00093F82A309B09DAB2A14B1A75A04B1B78E5
:104DC000032B71D09E4B93F82D301A469C4B1A61E1
:104DD0009B4B93F82F3003F00F037B60984B1B7DA8
:104DE000002B3AD1964B93F830309B0203F440638A
:104DF000FB60934B93F831309B00FA681343FB60E0
:104E00008F4B93F832309B09DBB21A46FB68134391
:104E1000FB608B4B93F833305B0003F00603BB6001
:104E2000874B93F83430DB09DBB21A46BB68134377
:104E3000BB60FB680133824A9360814B9A68BB6810
:104E4000023302FA03F37E4A936001227B6802FA7E
:104E500003F31A467A4BDA601DE0794B93F8313050
:104E60001B0403F47C13FB60754B93F832301B0278
:104E70001A46FB681343FB60714B93F833301A46B4
:104E8000FB681343FB606E4B4FF40072DA60FB6803
:104E900001336B4A93606A4B9B68694AD26802FB94
:104EA00003F3674A536047E0654B93F82D301A4689
:104EB000634B1A61624B93F830301B0203F440736A
:104EC000FB605F4B93F831301A46FB681344FB607C
:104ED000FB689B00FB605A4B93F832309B09DBB2B6
:104EE0001A46FB681344FB60554B93F82F3003F0D0
:104EF0000F03012202FA03F31A46514BDA60504BBA
:104F000093F833305B0003F006034D4A92F83420E7
:104F1000D209D2B21344BB60FB685A1CBB6802338F
:104F200002FA03F3464A9360454B9B68444AD268B1
:104F300002FB03F3424A5360414B1B78032B59D0C9
:104F40003F4B93F83A203E4B1A763D4B93F83B305B
:104F50001B021AB23A4B93F83C301BB213431BB2FC
:104F60009AB2374B5A83364B93F83D20344B1A771D
:104F7000334B93F83E20324B5A77314B93F83F2016
:104F80002F4B9A772E4B93F840202D4BDA772C4BF2
:104F900093F841202A4B83F82020294B93F8422094
:104FA000274B83F82120264B93F843301A06244BD5
:104FB00093F844301B041A43214B93F845301B02ED
:104FC00013431F4A92F8462013431A461C4B5A6259
:104FD0001B4B93F847301B021AB2194B93F8483019
:104FE0001BB213431BB29BB2C3F30B039AB2144B15
:104FF0001A851FE0124B00221A76114B00225A83A9
:105000000F4B2A221A770E4B4D225A770C4B4D220A
:105010009A770B4B4322DA77094B2A2283F8202018
:10502000074B002283F82120054B00225A62044BD3
:1050300000221A8500BF1437BD465DF8047B704717
:105040001C3C002080B582B000AF402200210C2023
:10505000FFF79CFA3B1D19460120FFF781FB034631
:1050600018460837BD4680BD80B584B000AF786073
:105070000F4BDB8A1B04402219460D20FFF786FAEE
:1050800007F10C0319460120FFF76AFBFB685B0A76
:10509000DBB203F00F03DAB27B681A70FB681846C4
:1050A000FFF7C6FA034618461037BD4680BD00BF5D
:1050B0001C3C002090B589B000AFF860B9607A6000
:1050C0000023FB777B685B0A7B615A4B0022DA6224
:1050D000594B1B78042B02D1FB685B0AFB60554BD4
:1050E00040F2FF529A637B69012B08D94022F9688C
:1050F0001220FFF74BFA40F22A33BB6107E040224F
:10510000F9681120FFF742FA40F22A63BB6107F108
:10511000100319460120FFF723FB0346FB77FB7FB3
:10512000002B01D0FB7F80E0424B444A5A62414A47
:105130007B6893623F4B9322DA623E4B5C6B04F4D4
:105140000043002B37D03B49BB681A1DBA60D1F829
:1051500080201A603749BB681A1DBA60D1F88020D8
:105160001A603449BB681A1DBA60D1F880201A60F1
:105170003049BB681A1DBA60D1F880201A602D49E9
:10518000BB681A1DBA60D1F880201A602949BB6833
:105190001A1DBA60D1F880201A602649BB681A1D12
:1051A000BA60D1F880201A602249BB681A1DBA6023
:1051B000D1F880201A60BB692340002BBDD01E4B64
:1051C0001B78032B06D07B69012B03D9FFF73AFF2D
:1051D0000346FB7704F00803002B01D00E23FB7776
:1051E00004F00203002B01D00F23FB7704F020030F
:1051F000002B01D01023FB7704F40073002B09D09F
:105200001223FB7706E00B49BB681A1DBA60D1F880
:1052100080201A60074B5B6B03F40013002BF2D164
:10522000044B40F2FF529A63FB7F18462437BD4679
:1052300090BD00BF002801401C3C0020009F2400BE
:1052400090B58DB000AFF860B9607A60002387F840
:105250002F307B685B0AFB6100237B62A14B00223D
:10526000DA62A14B1B78042B02D1FB685B0AFB605E
:10527000FB69012B08D94022F9681920FFF786F94C
:1052800040F21A33BB6207E04022F9681820FFF7AA
:105290007DF940F21A63BB6207F11403194601203D
:1052A000FFF75EFA034687F82F3097F82F30002B70
:1052B00002D097F82F3010E18A4B40F2FF529A63E8
:1052C000884B8A4A5A62874A7B689362854B91224F
:1052D000DA627B6803F01F03002B49D1814B5C6BC2
:1052E00004F48043002B3ED07A6A7B689A423AD21B
:1052F000BB681A1DBA607B4A1B68C2F88030BB6865
:105300001A1DBA60774A1B68C2F88030BB681A1D44
:10531000BA60744A1B68C2F88030BB681A1DBA6054
:10532000704A1B68C2F88030BB681A1DBA606D4AAB
:105330001B68C2F88030BB681A1DBA60694A1B68D6
:10534000C2F88030BB681A1DBA60664A1B68C2F892
:105350008030BB681A1DBA60624A1B68C2F8803090
:105360007B6A20337B62BB6A2340002BB6D076E099
:105370005C4B5C6B04F48043002B6CD07A6A7B68D6
:105380009A4268D27A687B6AD31A1F2B28D87A6827
:105390007B6AD31A03F00303002B04D17A687B6A7B
:1053A000D31A9B0804E07A687B6AD31A9B080133FE
:1053B000BB6100233B6209E0BB681A1DBA60494A21
:1053C0001B68C2F880303B6A01333B623A6ABB69B2
:1053D0009A42F1D3BB699B007A6A13447B623AE03C
:1053E000BB681A1DBA603F4A1B68C2F88030BB68B0
:1053F0001A1DBA603B4A1B68C2F88030BB681A1D90
:10540000BA60384A1B68C2F88030BB681A1DBA609F
:10541000344A1B68C2F88030BB681A1DBA60314A32
:105420001B68C2F88030BB681A1DBA602D4A1B6821
:10543000C2F88030BB681A1DBA602A4A1B68C2F8DD
:105440008030BB681A1DBA60264A1B68C2F88030DB
:105450007B6A20337B62BB6A2340002B88D0224BBF
:105460001B78032B07D0FB69012B04D9FFF7EAFD5A
:10547000034687F82F3004F00803002B02D00E23D8
:1054800087F82F3004F00203002B02D00F2387F897
:105490002F3004F01003002B02D0112387F82F3097
:1054A00004F40073002B02D0122387F82F3007F189
:1054B00013031846FFF7D8FD0346002B06D1FB7CEB
:1054C000072BF4D0FB7C062BF1D000E000BF054B8E
:1054D00040F2FF529A6397F82F3018463437BD4692
:1054E00090BD00BF002801401C3C0020808D5B0067
:1054F00080B485B000AFF860B9607A603B60FB684B
:10550000294A934206D1294B1B6E284A43F4805303
:10551000136614E0FB68264A934206D1234B9B6D29
:10552000224A43F48043936509E0FB68214A934291
:1055300005D11E4B9B6D1D4A43F400439365FB68E8
:105540001B68BA68D2001A43FB681A60FB681A68C5
:105550007B681A43FB681A60FB681B68BA69D20152
:105560001A43FB681A60FB681B6843F00402FB687F
:105570001A60FB681B6843F44072FB681A60FB68A2
:105580001A68FB681A60FB684FF4B8525A60FB68EF
:105590001B6843F04002FB681A6000BF1437BD4629
:1055A0005DF8047B704700BF0030014000100240EE
:1055B00000380040003C004080B483B000AF786009
:1055C0000B46FB70FA787B68DA6000BF0C37BD468B
:1055D0005DF8047B704780B582B000AF78600B4601
:1055E000FB70FB7819467868FFF7E6FF00BF7B6821
:1055F0009B6803F00103002BF9D07B68DB68DBB20A
:1056000018460837BD4680BD80B483B000AF7860CF
:105610000B46FB7000BF7B689B6803F00203002B06
:10562000F9D07B680C33FA781A7000BF7B689B68EE
:1056300003F00103002BF9D000BF084B9B6803F077
:105640008003002BF9D17B680C331B78DBB2184642
:105650000C37BD465DF8047B704700BF0030014049
:1056600080B483B000AF78600B46FB7000BF7B68EE
:105670009B6803F00203002BF9D07B680C33FA78A7
:105680001A707B68DB687B689B6800BF0C37BD467F
:105690005DF8047B704780B485B000AF786000BFD0
:1056A0007B689B6803F00203002BF9D07B680C3306
:1056B00000221A700023FB600023FB720123BB72DF
:1056C0007B689B6803F00103012B13D17B689B6807
:1056D0005B0ADBB203F00303DBB2BB727B680C3303
:1056E0001B78DBB2FB72BB7ADBB2002B09D1FB7AF1
:1056F000DBB210E0FB680133FB60FB68094A9342B0
:1057000004D8BB7ADBB2002B02D0D9E700BF00E09F
:1057100000BFFB7ADBB218461437BD465DF8047B48
:10572000704700BFF049020080B586B000AFF86056
:10573000B9601346FB7100237B610AE07B69BA689C
:1057400013441B781946F868FFF78AFF7B69013319
:105750007B61FB797A699A42F0DB00BF00BF1837A2
:10576000BD4680BD80B485B000AF78600B467B80BD
:105770007B88FB737B881B0A9BB2BB7300BF7B6873
:105780009B6803F00203002BF9D0BA7B7B68DA60D8
:1057900000BF7B689B6803F00203002BF9D0FA7B03
:1057A0007B68DA6000BF1437BD465DF8047B704744
:1057B00080B483B000AF78607B680022DA6000BFFD
:1057C0007B689B6803F00103002BF9D07B68DB68E2
:1057D000DBB218460C37BD465DF8047B704780B4D9
:1057E00083B000AF78607B680022DA6000BF7B681E
:1057F0009B6803F00103002BF9D07B68DB68DBB208
:1058000018460C37BD465DF8047B704780B483B002
:1058100000AF0346FB7197F90730002B0BDBFB79D8
:1058200003F01F02074997F907305B09012000FACE
:1058300002F241F8232000BF0C37BD465DF8047B1F
:10584000704700BF00E100E080B586B000AFF860AF
:10585000B9601346FB71FB68B3F1804F06D13B4B37
:105860009B6D3A4A43F0010393651FE0FB68384A99
:10587000934206D1354B1B6E344A43F48033136692
:1058800014E0FB68334A934206D1304B1B6E2F4A1B
:1058900043F40033136609E0FB682F4A934205D1B5
:1058A0002A4B9B6D294A43F020039365FB6849F618
:1058B0003F429A62BB685A00FB68DA62FB79002BB0
:1058C00011D1FB681B6843F00802FB681A60FB6893
:1058D0005B6943F00102FB685A61FB681B6923F0B6
:1058E0000102FB681A61FB68DB6843F00102FB6898
:1058F000DA60FB68B3F1804F03D11C20FFF786FF0D
:1059000006E0FB68144A934202D13720FFF77EFF7E
:10591000FB681B6843F00102FB681A60FB680C4AD5
:10592000934203D0FB680B4A93420AD10023FB82C7
:1059300002E0FB8A0133FB82FB8A47F22F5293423B
:10594000F7D900BF1837BD4680BD00BF0010024028
:1059500000400140004401400014004080B483B086
:1059600000AF0346FB7197F90730002B0BDBFB7987
:1059700003F01F02074997F907305B09012000FA7D
:1059800002F241F8232000BF0C37BD465DF8047BCE
:10599000704700BF00E100E080B584B000AFF86060
:1059A000B9601346FB71FB6800221A60FB68002295
:1059B0005A60FB6800229A60FB684FF6FF721A6219
:1059C000FB68534A93420FD1524B1B6E514A43F42A
:1059D000804313662520FFF7C1FF4F4ABB68B2FB27
:1059E000F3F2FB68DA603AE0FB684C4A93420FD16D
:1059F000484B9B6D474A43F4003393652620FFF7DD
:105A0000ADFF454ABB68B2FBF3F2FB68DA6026E003
:105A1000FB68434A93420FD13E4B9B6D3D4A43F492
:105A2000802393652720FFF799FF3B4ABB68B2FBB1
:105A3000F3F2FB68DA6012E0FB683A4A934262D103
:105A4000344BDB6D334A43F00103D3654620FFF747
:105A500085FF314ABB68B2FBF3F2FB68DA60FB6892
:105A60001B6823F08052FB681A60FB681B6823F4F4
:105A70008052FB681A60FB681B6823F48062FB6835
:105A80001A60FB685B6823F44052FB685A60FB793C
:105A9000012B25D1FB685B6823F48042FB685A60C8
:105AA000FB685B6823F40062FB685A60FB689B68D4
:105AB00023F02002FB689A60FB689B6823F00202D7
:105AC000FB689A60FB689B6823F00802FB689A6099
:105AD000FB689B68FA79D2001A43FB689A6005E07C
